S015000061635F6472697665725F6170702E73726563C0
S113000059C000005FC000005DC000005BC000007C
S113001059C0000057C0000055C0000053C0000084
S113002051C000004FC000004DC000004BC0000094
S113003049C0000047C0000045C0000043C00000A4
S113004041C000003FC000003DC000003BC00000B4
S113005039C0000037C0000035C0000033C00000C4
S113006031C000002FC000002DC000002BC00000D4
S113007029C0000027C0000025C0000023C00000E4
S113008021C000001FC000001DC000001BC00000F4
S113009019C0000017C0000015C0000013C0000004
S11300A011C000000FC000000DC000000BC0000014
S11300B009C0000011241FBECFEFD8E0DEBFCDBFC2
S11300C088D2F1C59DCF04C061507109810991099D
S11300D06115710581059105B9F708952F923F9235
S11300E04F925F926F927F928F929F92AF92BF9244
S11300F0CF92DF92EF92FF920F931F93CF93DF93F0
S1130100CDB7DEB76F970FB6F894DEBF0FBECDBF85
S11301108B8F4C8F5D8F6E8F7F8F8B8D882F90E0B0
S11301209A838983DFC18DE08C8381E08D838C8108
S1130130882F90E09F838E838D8188878E819F8115
S113014096958795969587959695879589878985B8
S1130150282F30E0C901880F991F820F931F8096C2
S11301609B878A8788858823D9F08A859B85FC01AB
S113017042818E819F819D878C878C859D859C0182
S11301802770332781E090E002C0880F991F2A95D9
S1130190E2F7242F282B8A859B85FC0122831CC02F
S11301A08A859B85FC018281482F8E819F819F8750
S11301B08E878E859F859C012770332781E090E090
S11301C002C0880F991F2A95E2F780958423282F6F
S11301D08A859B85FC0122838C8D9D8DAE8DBF8D80
S11301E0892B8A2B8B2B09F489C08C8D9D8DAE8D28
S11301F0BF8D1C012D01612C712C4301A12C0F2EEC
S1130200F2E1BF2EF02D0F2EFAE7CF2EF02DD12CD8
S1130210E12CF12C00E010E0222D332D442D552D3E
S1130220662D772D882D992D80D4A22EB32EC42E21
S1130230D52EE62EF72E082F192F2A2C3B2C4C2CCA
S11302405D2C6E2C7F2C802E912E0F2EF6E0AF2E7F
S1130250F02DB12CC12CD12CE12CF12C00E010E0BC
S1130260222D332D442D552D662D772D882D992D36
S1130270AFD4222E332E442E552E662E772E882E62
S1130280992EA22CB32CC42CD52CE62CF72C082D9B
S1130290192D2A2D3B2D4C2D5D2D6E2D7F2D802F5C
S11302A0912F29513C4F4F4F5F4F6F4F7F4F8F4FCF
S11302B09F4FA22EB32EC42ED52EE62EF72E082F36
S11302C0192F2A2D3B2D4C2D5D2D6E2D7F2D802F2A
S11302D0912F9CD3DC01CB0120E030E04AE754E4C9
S11302E0BC01CD01FFD2DC01CB01BC01CD0162D345
S11302F0DC01CB01BC01CD01E6DE05C062E070E0AB
S113030080E090E0E0DE8DE08B83188A8B81882F7B
S113031090E09A8B898B88898B8B89899A899695A9
S1130320879596958795969587958C8B8C89282F9C
S113033030E0C901880F991F820F931F80969E8B0E
S11303408D8B8B898823D9F08D899E89FC0142810C
S113035089899A89988F8F8B8F89988D9C012770B2
S1130360332781E090E002C0880F991F2A95E2F7B5
S1130370242F282B8D899E89FC0122831CC08D8902
S11303809E89FC018281482F89899A899A8F898F55
S1130390898D9A8D9C012770332781E090E002C0FB
S11303A0880F991F2A95E2F780958423282F8D8939
S11303B09E89FC0122838C8D9D8DAE8DBF8D892BF2
S11303C08A2B8B2B09F489C08C8D9D8DAE8DBF8DAE
S11303D01C012D01612C712C4301A12C0F2EF2E183
S11303E0BF2EF02D0F2EFAE7CF2EF02DD12CE12CBD
S11303F0F12C00E010E0222D332D442D552D662DD7
S1130400772D882D992D91D3A22EB32EC42ED52EBF
S1130410E62EF72E082F192F2A2C3B2C4C2C5D2C62
S11304206E2C7F2C802E912E0F2EF6E0AF2EF02D09
S1130430B12CC12CD12CE12CF12C00E010E0222DA8
S1130440332D442D552D662D772D882D992DC0D310
S1130450222E332E442E552E662E772E882E992E3C
S1130460A22CB32CC42CD52CE62CF72C082D192D3A
S11304702A2D3B2D4C2D5D2D6E2D7F2D802F912F00
S113048029513C4F4F4F5F4F6F4F7F4F8F4F9F4FBF
S1130490A22EB32EC42ED52EE62EF72E082F192FFA
S11304A02A2D3B2D4C2D5D2D6E2D7F2D802F912FD0
S11304B0ADD2DC01CB0120E030E04AE754E4BC01DA
S11304C0CD0110D2DC01CB01BC01CD0173D2DC0122
S11304D0CB01BC01CD01F7DD05C062E070E080E036
S11304E090E0F1DD89819A819C01215031093A83A0
S11304F02983892B09F017CE00006F960FB6F89464
S1130500DEBF0FBECDBFDF91CF911F910F91FF9042
S1130510EF90DF90CF90BF90AF909F908F907F909F
S11305206F905F904F903F902F900895CF93DF93FB
S1130530CDB7DEB78CE790E02CE730E0F9012081FD
S11305402064FC0120838AE790E02AE730E0F90187
S113055020812068FC0120838AE790E02AE730E0CC
S1130560F90120812760FC0120830000DF91CF91F5
S11305700895CF93DF931F92CDB7DEB789838CE7BD
S113058090E02CE730E0F9012081322F307F29817F
S11305902F70232BFC0120838AE790E02AE730E0C8
S11305A0F90120812064FC01208300008AE790E0A7
S11305B0FC018081882F90E080749927892BB1F702
S11305C088E790E0FC01808191810F90DF91CF91C9
S11305D00895CF93DF93CDB7DEB72C970FB6F89479
S11305E0DEBF0FBECDBF2CD0A1DF44E650E060E0FB
S11305F070E08AE073DD1A8219821C821B821E82DB
S11306001D8218861F821A8619861C861B8680E026
S1130610B0DF9A83898381E0ACDF9C838B8382E0A3
S1130620A8DF9E838D8383E0A4DF98878F8384E093
S1130630A0DF9A87898785E09CDF9C878B87E7CF3B
S1130640CF93DF93CDB7DEB76A970FB6F894DEBFCA
S11306500FBECDBF8DE0898383E090E0988B8F87B8
S11306608981882F90E09A8B898B89899A899C014A
S11306702770332781E090E002C0880F991F2A95E4
S1130680E2F7482F8981882F90E09C8B8B8B8B8994
S11306909C899695879596958795969587958D8B44
S11306A08D89282F30E0C901880F991F820F931F6D
S11306B080969F8B8E8B488F8F8598899A8F898F90
S11306C0898D9A8D81709927892B89F1898D9A8DCD
S11306D082709927892B71F08E899F8902962E89C1
S11306E03F892E5F3F4FF9013081288D232BFC0178
S11306F020830FC08E899F8902962E893F892E5FA1
S11307003F4FF9012081322F288D20952323FC01AE
S113071020838E899F8901962E893F892F5F3F4FC1
S1130720F9013081288D232BFC01208332C08E896E
S11307309F8901962E893F892F5F3F4FF9012081C0
S1130740322F288D20952323FC012083898D9A8DB7
S113075084709927892B71F08E899F8902962E893E
S11307603F892E5F3F4FF9013081288D232BFC01F7
S113077020830FC08E899F8902962E893F892E5F20
S11307803F4FF9012081322F288D20952323FC012E
S113079020838FE08A8384E090E09C838B838A812A
S11307A0882F90E09E838D838D819E819C0127708C
S11307B0332781E090E002C0880F991F2A95E2F761
S11307C0482F8A81882F90E098878F838F8198851E
S11307D09695879596958795969587958987898522
S11307E0282F30E0C901880F991F820F931F80962C
S11307F09B878A874C878B819C819E878D878D857B
S11308009E8581709927892B89F18D859E858270BB
S11308109927892B71F08A859B8502962A853B85C9
S11308202E5F3F4FF90130812C85232BFC0120835F
S11308300FC08A859B8502962A853B852E5F3F4F94
S1130840F9012081322F2C8520952323FC0120835C
S11308508A859B8501962A853B852F5F3F4FF90149
S113086030812C85232BFC01208332C08A859B8513
S113087001962A853B852F5F3F4FF9012081322F56
S11308802C8520952323FC0120838D859E858470EF
S11308909927892B71F08A859B8502962A853B8549
S11308A02E5F3F4FF90130812C85232BFC012083DF
S11308B00FC08A859B8502962A853B852E5F3F4F14
S11308C0F9012081322F2C8520952323FC012083DC
S11308D000006A960FB6F894DEBF0FBECDBFDF915D
S11308E0CF9108950CD0E7C0DFD040F0D6D030F0DF
S11308F021F45F3F19F0C8C0511111C1CBC0ECD035
S113090098F39923C9F35523B1F3951B550BBB27D2
S1130910AA2762177307840738F09F5F5F4F220F7F
S1130920331F441FAA1FA9F333D00E2E3AF0E0E878
S113093030D091505040E695001CCAF729D0FE2FC4
S113094027D0660F771F881FBB1F26173707480756
S1130950AB07B0E809F0BB0B802DBF01FF2793580C
S11309605F4F2AF09E3F510568F08EC0D8C05F3FAC
S1130970ECF3983EDCF3869577956795B795F795F4
S11309809F5FC9F7880F911D9695879597F90895EC
S1130990E1E0660F771F881FBB1F62177307840788
S11309A0BA0720F0621B730B840BBA0BEE1F88F797
S11309B0E095089599D088F09F5790F0B92F992722
S11309C0B751A0F0D1F0660F771F881F991F1AF056
S11309D0BA95C9F712C0B13081F0A0D0B1E0089542
S11309E09DC0672F782F8827B85F39F0B93FCCF3C3
S11309F0869577956795B395D9F73EF4909580954C
S1130A00709561957F4F8F4F9F4F0895E894F92F0C
S1130A1096EBFF2381F0121613061406440B9395EC
S1130A20F69587957795679557954040FF23B9F7D5
S1130A301BC099270895882351F49850D2F7872B27
S1130A40762F652F542F432F322F20E0B1F3121647
S1130A5013061406440B88233AF09A95440F551F45
S1130A60661F771F881FCAF755234AF4440F551F82
S1130A7011F460FF04C06F5F7F4F8F4F9F4F880F4B
S1130A809695879597F9089597F99F6780E870E0A0
S1130A9060E008959FEF80EC089500240A941616F0
S1130AA0170618060906089500240A941216130658
S1130AB0140605060895092E0394000C11F48823E6
S1130AC052F0BB0F40F4BF2B11F460FF04C06F5F02
S1130AD07F4F8F4F9F4F089557FD9058440F551FD8
S1130AE059F05F3F71F04795880F97FB991F61F0AC
S1130AF09F3F79F087950895121613061406551F23
S1130B00F2CF4695F1DF08C0161617061806991F8E
S1130B10F1CF86957105610508940895E894BB2783
S1130B2066277727CB0197F90895DF93CF931F9317
S1130B300F939A9DF02D219FF00D8B9DF00D8A9DB2
S1130B40E02DF10D039FF00D029FE00DF11D4E9D70
S1130B50E00DF11D5E9DF00D4F9DF00D7F936F93A1
S1130B60BF92AF925F934F93D5018ED08B01AC01AE
S1130B70D7018AD0EB01E80FF91FD6011FD02F91BE
S1130B803F91D60181D0C60FD71FE81FF91FAF913F
S1130B90BF9114D02F913F9177D0C60FD71FE81F74
S1130BA0F91FD60171D0E60FF71F9801BE01CF01DE
S1130BB011240F911F91CF91DF91089565D0460FB5
S1130BC0571FC81FD91F08F431960895689401C0AF
S1130BD0E8948F929F92CF93DF9305D0DF91CF91CA
S1130BE09F908F90089588249924F401E401B0E43F
S1130BF09F93AA279A158B049C04ED05FE05CF0547
S1130C00D007A10798F4AD2FDC2FCF2FFE2FE92DAD
S1130C10982C892E982F872F762F652F542F432FAA
S1130C20322F2227B85031F7BF9127C01B2EBF9116
S1130C30BB27220F331F441F551F661F771F881FB2
S1130C40991F881C991CEE1FFF1FCC1FDD1FAA1FB4
S1130C50BB1F8A149B04EC05FD05CE05DF05A00728
S1130C60B10748F08A189B08EC09FD09CE09DF0991
S1130C70A00BB10B21601A94E1F62EF49401AF019C
S1130C80BE01CD01000C0895A29FB001B39FC00125
S1130C90A39F700D811D1124911DB29F700D811DA4
S10D0CA01124911D0895F894FFCF6C
S9030000FC
