S018000061635F6472697665725F736F757263652E737265636D
S113000059C0000060C000005EC000005CC0000079
S11300105AC0000058C0000056C0000054C0000080
S113002052C0000050C000004EC000004CC0000090
S11300304AC0000048C0000046C0000044C00000A0
S113004042C0000040C000003EC000003CC00000B0
S11300503AC0000038C0000036C0000034C00000C0
S113006032C0000030C000002EC000002CC00000D0
S11300702AC0000028C0000026C0000024C00000E0
S113008022C0000020C000001EC000001CC00000F0
S11300901AC0000018C0000016C0000014C0000000
S11300A012C0000010C000000EC000000CC0000010
S11300B00AC0000011241FBECFEFD8E0DEBFCDBFC1
S11300C05CD60C94C2089CCFCF93DF93CDB7DEB738
S11300D02B970FB6F894DEBF0FBECDBF9B878A87E0
S11300E08A859B859A83898389819A819C838B8362
S11300F08B819C81969587959695879596958795FE
S11301008D838D81282F30E0C901880F991F820FBC
S1130110931F80969F838E838E819F81FC014081F3
S113012089819A8199878887888599859C01277018
S1130130332781E090E002C0880F991F2A95E2F7E7
S1130140942F982381E0992309F480E02B960FB62D
S1130150F894DEBF0FBECDBFDF91CF91089504C0E8
S11301606150710981099109611571058105910534
S1130170B9F70895CF93DF93CDB7DEB7C154D10952
S11301800FB6F894DEBF0FBECDBF8DE0898381E04A
S113019090E09FAB8EAB8981882F90E099AF88AFB8
S11301A088AD99AD9C012770332781E090E002C0AF
S11301B0880F991F2A95E2F7482F8981882F90E0AC
S11301C09BAF8AAF8AAD9BAD96958795969587959B
S11301D0969587958CAF8CAD282F30E0C901880F98
S11301E0991F820F931F80969EAF8DAF4FAFCE01A4
S11301F0805C9F4F2EA93FA9FC0131832083CE014F
S1130200805C9F4FFC018081918181709927892BAB
S1130210A9F1CE01805C9F4FFC01808191818270A5
S11302209927892B71F08DAD9EAD02962DAD3EAD13
S11302302E5F3F4FF90130812FAD232BFC0120832A
S11302400FC08DAD9EAD02962DAD3EAD2E5F3F4FDE
S1130250F9012081322F2FAD20952323FC01208327
S11302608DAD9EAD01962DAD3EAD2F5F3F4FF90193
S113027030812FAD232BFC01208336C08DAD9EAD84
S113028001962DAD3EAD2F5F3F4FF9012081322FF6
S11302902FAD20952323FC012083CE01805C9F4F4A
S11302A0FC018081918184709927892B71F08DAD37
S11302B09EAD02962DAD3EAD2E5F3F4FF9013081CC
S11302C02FAD232BFC0120830FC08DAD9EAD029674
S11302D02DAD3EAD2E5F3F4FF9012081322F2FAD62
S11302E020952323FC0120838FE08A8384E090E01F
S11302F09BA78AA78A81882F90E09DA78CA78CA5AD
S11303009DA59C012770332781E090E002C0880FEF
S1130310991F2A95E2F7482F8A81882F90E09FA79A
S11303208EA78EA59FA59695879596958795969564
S1130330879588AB88A9282F30E0C901880F991FB9
S1130340820F931F80969AAB89AB4BAB8AA59BA572
S11303509DAB8CAB8CA99DA981709927892B89F1C0
S11303608CA99DA982709927892B71F089A99AA9D2
S1130370029629A93AA92E5F3F4FF90130812BA992
S1130380232BFC0120830FC089A99AA9029629A9CD
S11303903AA92E5F3F4FF9012081322F2BA92095D6
S11303A02323FC01208389A99AA9019629A93AA9A2
S11303B02F5F3F4FF90130812BA9232BFC012083B0
S11303C032C089A99AA9019629A93AA92F5F3F4F5A
S11303D0F9012081322F2BA920952323FC012083AE
S11303E08CA99DA984709927892B71F089A99AA950
S11303F0029629A93AA92E5F3F4FF90130812BA912
S1130400232BFC0120830FC089A99AA9029629A94C
S11304103AA92E5F3F4FF9012081322F2BA9209555
S11304202323FC01208388E08B8384E090E09F8F6A
S11304308E8F8B81882F90E099A388A388A199A19E
S11304409C012770332781E090E002C0880F991F38
S11304502A95E2F7482F8B81882F90E09BA38AA3EB
S11304608AA19BA19695879596958795969587954C
S11304708CA38CA1282F30E0C901880F991F820F0B
S1130480931F80969EA38DA34FA38E8D9F8D99A7B6
S113049088A788A599A581709927892B89F188A5B2
S11304A099A582709927892B71F08DA19EA102963E
S11304B02DA13EA12E5F3F4FF90130812FA1232BA7
S11304C0FC0120830FC08DA19EA102962DA13EA107
S11304D02E5F3F4FF9012081322F2FA12095232336
S11304E0FC0120838DA19EA101962DA13EA12F5F29
S11304F03F4FF90130812FA1232BFC01208332C00F
S11305008DA19EA101962DA13EA12F5F3F4FF90120
S11305102081322F2FA120952323FC01208388A53D
S113052099A584709927892B71F08DA19EA10296BB
S11305302DA13EA12E5F3F4FF90130812FA1232B26
S1130540FC0120830FC08DA19EA102962DA13EA186
S11305502E5F3F4FF9012081322F2FA120952323B5
S1130560FC01208389E08C8381E090E09B8B8A8B63
S11305708C81882F90E09D8B8C8B8C899D899C012C
S11305802770332781E090E002C0880F991F2A95D5
S1130590E2F7482F8C81882F90E09F8B8E8B8E8979
S11305A09F89969587959695879596958795888F33
S11305B0888D282F30E0C901880F991F820F931F5F
S11305C080969A8F898F4B8F8A899B899D8F8C8F78
S11305D08C8D9D8D81709927892B89F18C8D9D8DB2
S11305E082709927892B71F0898D9A8D0296298DB5
S11305F03A8D2E5F3F4FF90130812B8D232BFC0167
S113060020830FC0898D9A8D0296298D3A8D2E5F95
S11306103F4FF9012081322F2B8D20952323FC019C
S11306202083898D9A8D0196298D3A8D2F5F3F4FB6
S1130630F90130812B8D232BFC01208332C0898D5D
S11306409A8D0196298D3A8D2F5F3F4FF9012081B4
S1130650322F2B8D20952323FC0120838C8D9D8D9F
S113066084709927892B71F0898D9A8D0296298D32
S11306703A8D2E5F3F4FF90130812B8D232BFC01E6
S113068020830FC0898D9A8D0296298D3A8D2E5F15
S11306903F4FF9012081322F2B8D20952323FC011C
S11306A020838AE08D8381E090E09F838E838D8117
S11306B0882F90E099878887888599859C01277081
S11306C0332781E090E002C0880F991F2A95E2F752
S11306D0482F8D81882F90E09B878A878A859B8508
S11306E09695879596958795969587958C878C850D
S11306F0282F30E0C901880F991F820F931F80961D
S11307009E878D874F878E819F81998B888B88895F
S1130710998981709927892B89F1888999898270AF
S11307209927892B71F08D859E8502962D853E85AE
S11307302E5F3F4FF90130812F85232BFC0120834D
S11307400FC08D859E8502962D853E852E5F3F4F79
S1130750F9012081322F2F8520952323FC0120834A
S11307608D859E8501962D853E852F5F3F4FF9012E
S113077030812F85232BFC01208332C08D859E85FB
S113078001962D853E852F5F3F4FF9012081322F41
S11307902F8520952323FC012083888999898470DF
S11307A09927892B71F08D859E8502962D853E852E
S11307B02E5F3F4FF90130812F85232BFC012083CD
S11307C00FC08D859E8502962D853E852E5F3F4FF9
S11307D0F9012081322F2F8520952323FC012083CA
S11307E00000CF5BDF4F0FB6F894DEBF0FBECDBF66
S11307F0DF91CF9108952F923F924F925F926F9223
S11308007F928F929F92AF92BF92CF92DF92EF929C
S1130810FF920F931F93CF93DF93CDB7DEB76D97FE
S11308200FB6F894DEBF0FBECDBF898F4A8F5B8FA2
S11308306C8F7D8FEAC18DE08A8381E08B838A810E
S1130840882F90E09D838C838B818E838C819D8106
S11308509695879596958795969587958F838F819D
S1130860282F30E0C901880F991F820F931F8096AB
S1130870998788878E818823D9F088859985FC019A
S113088042818C819D819B878A878A859B859C0177
S11308902770332781E090E002C0880F991F2A95C2
S11308A0E2F7242F282B88859985FC0122831CC01C
S11308B088859985FC018281482F8C819D819D8743
S11308C08C878C859D859C012770332781E090E07F
S11308D002C0880F991F2A95E2F780958423282F58
S11308E088859985FC0122838A8D9B8DAC8DBD8D75
S11308F00297A105B10508F48DC08A8D9B8DAC8D3E
S1130900BD8DB695A795979587951C012D01612CF2
S1130910712C4301A12C0F2EF2E1BF2EF02D0F2ECE
S1130920FAE7CF2EF02DD12CE12CF12C00E010E0D1
S1130930222D332D442D552D662D772D882D992D5F
S113094063D3A22EB32EC42ED52EE62EF72E082F57
S1130950192F2A2C3B2C4C2C5D2C6E2C7F2C802E9A
S1130960912E0F2EF6E0AF2EF02DB12CC12CD12CF0
S1130970E12CF12C00E010E0222D332D442D552DD7
S1130980662D772D882D992D92D3222E332E442E29
S1130990552E662E772E882E992EA22CB32CC42C7D
S11309A0D52CE62CF72C082D192D2A2D3B2D4C2D5A
S11309B05D2D6E2D7F2D802F912F29513C4F4F4F50
S11309C05F4F6F4F7F4F8F4F9F4FA22EB32EC42E7A
S11309D0D52EE62EF72E082F192F2A2D3B2D4C2D20
S11309E05D2D6E2D7F2D802F912F7FD2DC01CB01C9
S11309F020E030E04AE754E4BC01CD01E2D1DC015F
S1130A00CB01BC01CD0145D2DC01CB01BC01CD0140
S1130A10A6DB05C062E070E080E090E0A0DB8DE042
S1130A2089831E868981882F90E0988B8F878E8595
S1130A30898B8F85988996958795969587959695B0
S1130A4087958A8B8A89282F30E0C901880F991FDE
S1130A50820F931F80969C8B8B8B89898823D9F076
S1130A608B899C89FC0142818F8598899E8B8D8B13
S1130A708D899E899C012770332781E090E002C014
S1130A80880F991F2A95E2F7242F282B8B899C899C
S1130A90FC0122831CC08B899C89FC018281482F24
S1130AA08F859889988F8F8B8F89988D9C0127705B
S1130AB0332781E090E002C0880F991F2A95E2F75E
S1130AC080958423282F8B899C89FC0122838A8D1D
S1130AD09B8DAC8DBD8D0297A105B10508F48DC029
S1130AE08A8D9B8DAC8DBD8DB695A7959795879571
S1130AF01C012D01612C712C4301A12C0F2EF2E15C
S1130B00BF2EF02D0F2EFAE7CF2EF02DD12CE12C95
S1130B10F12C00E010E0222D332D442D552D662DAF
S1130B20772D882D992D70D2A22EB32EC42ED52EBA
S1130B30E62EF72E082F192F2A2C3B2C4C2C5D2C3B
S1130B406E2C7F2C802E912E0F2EF6E0AF2EF02DE2
S1130B50B12CC12CD12CE12CF12C00E010E0222D81
S1130B60332D442D552D662D772D882D992D9FD20B
S1130B70222E332E442E552E662E772E882E992E15
S1130B80A22CB32CC42CD52CE62CF72C082D192D13
S1130B902A2D3B2D4C2D5D2D6E2D7F2D802F912FD9
S1130BA029513C4F4F4F5F4F6F4F7F4F8F4F9F4F98
S1130BB0A22EB32EC42ED52EE62EF72E082F192FD3
S1130BC02A2D3B2D4C2D5D2D6E2D7F2D802F912FA9
S1130BD08CD1DC01CB0120E030E04AE754E4BC01D5
S1130BE0CD01EFD0DC01CB01BC01CD0152D1DC0140
S1130BF0CB01BC01CD01B3DA05C062E070E080E056
S1130C0090E0ADDA898D8150898F898D882309F030
S1130C1012CE00006D960FB6F894DEBF0FBECDBFA6
S1130C20DF91CF911F910F91FF90EF90DF90CF90C4
S1130C30BF90AF909F908F907F906F905F904F90F8
S1130C403F902F900895CF93DF93CDB7DEB78CE715
S1130C5090E02CE730E0F90120812064FC0120833E
S1130C608AE790E02AE730E0F90120812068FC015E
S1130C7020838AE790E02AE730E0F90120812760A9
S1130C80FC0120830000DF91CF910895CF93DF937F
S1130C901F92CDB7DEB789838CE790E02CE730E074
S1130CA0F9012081322F307F29812F70232BFC0101
S1130CB020838AE790E02AE730E0F901208120646C
S1130CC0FC01208300008AE790E0FC018081882FEA
S1130CD090E080749927892BB1F788E790E0FC01B4
S1130CE0808191810F90DF91CF910895CF93DF930D
S1130CF0CDB7DEB788E090E0E7D9DF91CF910895D2
S1130D00CF93DF9300D0CDB7DEB79A83898380E099
S1130D10BDDF9C0189819A81FC013183208381E0BC
S1130D20B5DF9C0189819A81FC013383228382E0AF
S1130D30ADDF9C0189819A81FC013583248383E0A2
S1130D40A5DF9C0189819A81FC013783268384E095
S1130D509DDF9C0189819A81FC013187208785E090
S1130D6095DF9C0189819A81FC01338722870000E9
S1130D700F900F90DF91CF910895CF93DF93CDB76C
S1130D80DEB72C970FB6F894DEBF0FBECDBFF2D9F5
S1130D905ADF4CE251E060E070E085E02CDDA6DF34
S1130DA0882331F044EF51E060E070E081E023DD1E
S1130DB0CE010196A5DF66E578E584E190E0CFD920
S1130DC0EECF0CD0E7C0DFD040F0D6D030F021F425
S1130DD05F3F19F0C8C0511111C1CBC0ECD098F3DA
S1130DE09923C9F35523B1F3951B550BBB27AA27A8
S1130DF062177307840738F09F5F5F4F220F331F1A
S1130E00441FAA1FA9F333D00E2E3AF0E0E830D0E5
S1130E1091505040E695001CCAF729D0FE2F27D0E8
S1130E20660F771F881FBB1F261737074807AB07B6
S1130E30B0E809F0BB0B802DBF01FF2793585F4F2B
S1130E402AF09E3F510568F08EC0D8C05F3FECF396
S1130E50983EDCF3869577956795B795F7959F5FF0
S1130E60C9F7880F911D9695879597F90895E1E044
S1130E70660F771F881FBB1F621773078407BA07A3
S1130E8020F0621B730B840BBA0BEE1F88F7E095FE
S1130E90089599D088F09F5790F0B92F9927B751AA
S1130EA0A0F0D1F0660F771F881F991F1AF0BA952A
S1130EB0C9F712C0B13081F0A0D0B1E008959DC04F
S1130EC0672F782F8827B85F39F0B93FCCF3869520
S1130ED077956795B395D9F73EF49095809570957D
S1130EE061957F4F8F4F9F4F0895E894F92F96EBAC
S1130EF0FF2381F0121613061406440B9395F695FE
S1130F0087957795679557954040FF23B9F71BC0A0
S1130F1099270895882351F49850D2F7872B762F78
S1130F20652F542F432F322F20E0B1F312161306EE
S1130F301406440B88233AF09A95440F551F661FF4
S1130F40771F881FCAF755234AF4440F551F11F41D
S1130F5060FF04C06F5F7F4F8F4F9F4F880F969540
S1130F60879597F9089597F99F6780E870E060E0A6
S1130F7008959FEF80EC089500240A94161617062E
S1130F8018060906089500240A9412161306140676
S1130F9005060895092E0394000C11F4882352F0D9
S1130FA0BB0F40F4BF2B11F460FF04C06F5F7F4F91
S1130FB08F4F9F4F089557FD9058440F551F59F078
S1130FC05F3F71F04795880F97FB991F61F09F3F32
S1130FD079F087950895121613061406551FF2CF5B
S1130FE04695F1DF08C0161617061806991FF1CFAB
S1130FF086957105610508940895E894BB276627D2
S11310007727CB0197F90895DF93CF931F930F931D
S11310109A9DF02D219FF00D8B9DF00D8A9DE02D62
S1131020F10D039FF00D029FE00DF11D4E9DE00DAB
S1131030F11D5E9DF00D4F9DF00D7F936F93BF9258
S1131040AF925F934F93D5018ED08B01AC01D70142
S11310508AD0EB01E80FF91FD6011FD02F913F91E1
S1131060D60181D0C60FD71FE81FF91FAF91BF91DA
S113107014D02F913F9177D0C60FD71FE81FF91FC7
S1131080D60171D0E60FF71F9801BE01CF011124DC
S11310900F911F91CF91DF91089565D0460F571F8F
S11310A0C81FD91F08F431960895689401C0E894C4
S11310B08F929F92CF93DF9305D0DF91CF919F9032
S11310C08F90089588249924F401E401B0E49F9357
S11310D0AA279A158B049C04ED05FE05CF05D007BD
S11310E0A10798F4AD2FDC2FCF2FFE2FE92D982CDC
S11310F0892E982F872F762F652F542F432F322F29
S11311002227B85031F7BF9127C01B2EBF91BB27B0
S1131110220F331F441F551F661F771F881F991FF7
S1131120881C991CEE1FFF1FCC1FDD1FAA1FBB1FAD
S11311308A149B04EC05FD05CE05DF05A007B10765
S113114048F08A189B08EC09FD09CE09DF09A00BB9
S1131150B10B21601A94E1F62EF49401AF01BE01A3
S1131160CD01000C0895A29FB001B39FC001A39FBD
S1131170700D811D1124911DB29F700D811D1124CC
S10B1180911D0895F894FFCFBE
S9030000FC
